:1000000057C06FC06EC06DC06CC06BC0C9C069C046
:1000100068C067C066C065C064C063C062C061C0BC
:1000200060C05FC05EC01C3E6B497F637F551C3E55
:100030006B497F637F551C3E6B497F637F551C3E38
:100040006D497F637F551C3E496D7F637F551C3E24
:10005000495B7F637F551C3E5B497F637F551C3E38
:100060006B497F637F550000000000000002000024
:10007000000103040000000000003B003800000005
:10008000320000003A003700000031000404010192
:100090000404040404020202020202020201010238
:1000A00002010408102040010204081020408004CE
:1000B00011241FBECFEDCDBF10E0A0E6B0E0EAE412
:1000C000F4E002C005900D92A039B107D9F720E005
:1000D000A0E9B0E001C01D92A33AB207E1F7AAD0AF
:1000E000B2C18ECF87FD8FEF90E0FC01E256FF4F4B
:1000F000249184579F4FFC018491882399F090E0CC
:10010000880F991FFC01EE57FF4FA591B491FC0198
:10011000E858FF4F859194918FB7F894EC91E22BBA
:10012000EC938FBF089587FD8FEF90E0FC01EA59B3
:10013000FF4F3491FC01E256FF4F2491FC01E4573C
:10014000FF4FE491EE23B9F0332329F03130A1F4CD
:1001500080B78F7780BFF0E0EE0FFF1FE858FF4FAA
:10016000A591B4918FB7611117C0F894EC912095C7
:100170002E232C938FBF0895323019F480B78F7DD2
:10018000E9CF333021F48FB58F778FBDE4CF343092
:1001900011F78FB58F7DF9CFF894EC912E2BE9CF25
:1001A0001F920F920FB60F9211242F933F938F93AC
:1001B0009F93AF93BF9380919F009091A000A091D7
:1001C000A100B091A20030919E0026E0230F2D37B0
:1001D00068F129E8230F0396A11DB11D20939E000D
:1001E00080939F009093A000A093A100B093A200E1
:1001F00080919A0090919B00A0919C00B0919D00ED
:100200000196A11DB11D80939A0090939B00A0932D
:100210009C00B0939D00BF91AF919F918F913F91B2
:100220002F910F900FBE0F901F9018950296A11D51
:10023000B11DD4CFCF93DF93CDB7DD27C750CDBF4E
:1002400083E080BF83BF789489B7826089BF30E73D
:10025000C32E30E0D32E00E710E020E630E03A83F2
:100260002983A981BA81EC901296BA83A9838E2D35
:1002700039DFF801F0800E5F1F4F8F2D33DF60E014
:100280008E2D51DF61E08F2D4EDF29813A81C2161C
:10029000D30639F788E990E040E950E05F834E8368
:1002A0002FEFAE81BF811196BF83AE83FD013197E1
:1002B00020838A179B07A9F7E0E8F0E0FA83E98337
:1002C000A981BA81ED91FD91BA83A98350E040E004
:1002D00081E090E0042E01C0880F0A94EAF7182FFD
:1002E000982F9095A0E9B0E030E020E064918C91E7
:1002F00070E0022E02C0759567950A94E2F760FFE0
:1003000092C0812B8C932F5F3F4F1196283031057F
:1003100069F74F5F5F4F319648305105C9F62FB7E7
:10032000F89480919F009091A000A091A100B091BD
:10033000A2002FBFC12CD12C76012FB7F89480904A
:100340009F009090A000A090A100B090A2002FBFAD
:10035000A5019401281B390B4A0B5B0BDA01C9017B
:10036000C80ED91EEA1EFB1E37E9C316D104E104EC
:10037000F10408F05FC08091980090919900019677
:10038000813041E0940708F050C090939900809329
:10039000980080919800909199000F9708F040C0C4
:1003A00020E7222E20E0322E10E000E0D101BC91A7
:1003B000BC83E2E02E0E311C60E08B2FB4DE80E6C1
:1003C000682E80E0782E90E9492E90E0592ED201D7
:1003D0008D912D0190E0002E02C0959587950A948D
:1003E000E2F7B82FB170BB83F301F081FD8322E007
:1003F000620E711C6B2F8F2F96DE3B81332319F019
:1004000060E08D8190DE4E815F8144165506F9F6DD
:1004100061E08C8188DE0F5F1F4F0830110531F6D7
:10042000D501C4018ACF89236DCF10929900109213
:100430009800AFCF8CE890E0A981BA818A179B071A
:0A04400009F03ECF39CFF894FFCF4A
:10044A00000005000F00030008000E0009000C0060
:10045A0004000A000B0001000D000200060007005C
:10046A005E0056004E0046003E0036002E00260072
:00000001FF
