:100000003EC062C061C060C05FC087C15DC05CC0EF
:100010005BC05AC059C058C057C056C055C01C3EDE
:100020006B497F637F551C3E6B497F637F551C3E48
:100030006B497F637F551C3E6D497F637F551C3E36
:10004000496D7F637F551C3E495B7F637F551C3E36
:100050005B497F637F551C3E6B497F637F5501037E
:10006000000004000000000038000000000037001D
:1000700002020202020201020408102050021124AE
:100080001FBECFE5D2E0DEBFCDBF10E0A0E6B0E0FE
:10009000E4E7F5E002C005900D92A037B107D9F76B
:1000A00020E0A0E7B0E001C01D92A13DB207E1F75A
:1000B00010E0CFE3D0E003C02197FE0153D2CE334E
:1000C000D107D1F774D154C29BCF3FB7F894809138
:1000D000750090917600A0917700B091780022B7DA
:1000E00008B601FE05C02F3F19F00196A11DB11DF4
:1000F0003FBFBA2FA92F982F8827BC01CD01620FCF
:10010000711D811D911D43E0660F771F881F991F88
:100110004A95D1F7089587FF09C08F7731F1813073
:1001200031F1823031F1833031F18FEF90E0FC0119
:10013000EA58FF4F249180599F4FFC0184918823F6
:1001400099F090E0880F991FFC01E659FF4FA591A7
:10015000B491FC01EC59FF4F859194918FB7F894BD
:10016000EC91E22BEC938FBF089585E0DFCF82E026
:10017000DDCF84E0DBCF83E0D9CF87FF09C08F7765
:1001800071F1813071F1823071F1833071F18FEF53
:1001900090E0FC01E25AFF4F3491FC01EA58FF4F16
:1001A0002491FC01E059FF4FE491EE23B9F0332391
:1001B00029F03130E1F48AB58F778ABDF0E0EE0F97
:1001C000FF1FEC59FF4FA591B4918FB7611120C06B
:1001D000F894EC9120952E232C938FBF089585E001
:1001E000D7CF82E0D5CF84E0D3CF83E0D1CF3230F8
:1001F00019F48AB58F7DE1CF333021F480B78F7D3C
:1002000080BFDCCF3430D1F68CB58F7D8CBDD6CF9E
:10021000F894EC912E2BE0CFAF92BF92CF92DF9269
:10022000EF92FF920F931F93CF93DF9300D0CDB740
:10023000DEB769834A83880F991F0091CF00109120
:10024000D000000F111FE9E7F0E09F01295730406F
:100250002017310714F41192F8CF2981FC01E758D7
:10026000FF4F21838A81808360E08091CD0085DF0C
:10027000101611061CF501501109F801E758FF4F3F
:10028000C080B090CB00A090C90087E0E82EF12C90
:10029000D12CB6010E2C02C0759567950A94E2F731
:1002A00061708A2D6ADF61E08B2D67DF60E08B2D46
:1002B00064DF81E0E81AF10860F7DACF61E080914D
:1002C000CD000F900F90DF91CF911F910F91FF9074
:1002D000EF90DF90CF90BF90AF904FCFEF92FF9213
:1002E0000F931F93CF937C018C0183E0000F111FAC
:1002F0008A95E1F707571F4FC1E0F80111928F016E
:1003000040E06C2FC70188DFCF5FC930B1F7CF91D4
:100310001F910F91FF90EF9008951F920F920FB6CB
:100320000F9211242F933F938F939F93AF93BF937B
:100330008091710090917200A0917300B09174004F
:100340003091700026E0230F2D3768F129E8230F44
:100350000396A11DB11D20937000809371009093AE
:100360007200A0937300B093740080917500909117
:100370007600A0917700B09178000196A11DB11D83
:100380008093750090937600A0937700B0937800E7
:10039000BF91AF919F918F913F912F910F900FBE81
:1003A0000F901F9018950296A11DB11DD4CF83E028
:1003B0008ABD83BF789489B7826089BF80E48CBD91
:1003C0008FEF8DBD87EC80BF86E886B98091CF0026
:1003D0009091D000181619062CF441E06CE090E0E2
:1003E00080E01ADF8091CF009091D0001816190696
:1003F0002CF44FE06AE090E080E00EDF8091CF00C7
:100400009091D000181619061CF490E080E066DF89
:1004100090E7E92E90E0F92E00E610E0F801A190B7
:10042000B1908F01D0E0C0E0F501EC0FFD1F4491C9
:100430008091CF009091D000181619064CF4FE015F
:10044000E758FF4F408B6C2F6F5F90E080E0E4DE59
:100450002196C830D10541F738DEEB0186E9882EB8
:10046000912CA12CB12C31DE6C1B7D0B683E7340AE
:1004700088F081149104A104B10421F4E016F1067E
:1004800069F6CACFF1E08F1A9108A108B108C851E6
:10049000DC4FE9CF81149104A104B10421F7EECF20
:1004A000CF93DF931092CA001092C90083E090E0CE
:1004B0009093CC008093CB0081E090E09093CE00AD
:1004C0008093CD009093D0008093CF0080E023DE16
:1004D0008091CB0020DE8091CD001DDE61E0809117
:1004E000CD004BDE1092CA001092C900E9E8F0E09E
:1004F000119280E0E93CF807D9F7D0E0C0E08091A4
:10050000CF009091D000C817D9074CF540E06FE0BC
:10051000CE0182DE8091CF009091D000C817D9071C
:1005200024F447E06BE0CE0177DE40E069E0CE01E5
:1005300073DE8091CF009091D000C817D90714F4D2
:10054000CE01CCDE8091CF009091D000C817D907A2
:1005500024F440E06CE0CE015FDE2196D0CFDF9145
:10056000CF910895EE0FFF1F0590F491E02D0994AF
:04057000F894FFCF2D
:1005740056004E0046003E0036002E0026001E00A7
:00000001FF
