:100000001EC037C036C035C034C004C132C031C094
:1000100030C02FC02EC02DC02CC02BC02AC0010361
:10002000000004000000000038000000000037005D
:100030000202020202020102040810208D021124B1
:100040001FBECFE5D2E0DEBFCDBF20E0A0E6B0E02E
:1000500001C01D92AA3DB207E1F710E0CFE1D0E068
:1000600003C02197FE01BBD2CE31D107D1F740D1D9
:10007000BCC2C6CF87FF09C08F7771F1813071F1A3
:10008000823071F1833071F18FEF90E0FC01E25E1C
:10009000FF4F3491FC01EA5CFF4F2491FC01E05DCD
:1000A000FF4FE491EE23B9F0332329F03130E1F42E
:1000B0008AB58F778ABDF0E0EE0FFF1FEC5DFF4F32
:1000C000A591B4918FB7611120C0F894EC9120955F
:1000D0002E232C938FBF089585E0D7CF82E0D5CF14
:1000E00084E0D3CF83E0D1CF323019F48AB58F7D4D
:1000F000E1CF333021F480B78F7D80BFDCCF343047
:10010000D1F68CB58F7D8CBDD6CFF894EC912E2B8B
:10011000E0CFAF92BF92CF92DF92EF92FF920F9318
:100120001F93CF93DF9300D0CDB7DEB769834A83A7
:10013000880F991F0091D8001091D900000F111F4E
:10014000E2E8F0E09F01225830402017310714F414
:100150001192F8CF2981FC01EE57FF4F21838A814C
:10016000808360E08091D60085DF101611061CF5B3
:1001700001501109F801EE57FF4FC080B090D40034
:10018000A090D20087E0E82EF12CD12CB6010E2CE5
:1001900002C0759567950A94E2F761708A2D6ADF4F
:1001A00061E08B2D67DF60E08B2D64DF81E0E81A72
:1001B000F10860F7DACF61E08091D6000F900F90E0
:1001C000DF91CF911F910F91FF90EF90DF90CF9033
:1001D000BF90AF904FCFEF92FF920F931F93CF93AB
:1001E0007C018C0183E0000F111F8A95E1F70E5608
:1001F0001F4FC1E0F80111928F0140E06C2FC70141
:1002000088DFCF5FC930B1F7CF911F910F91FF9079
:10021000EF9008951F920F920FB60F9211244F93F3
:100220005F936F937F938F939F9340917E00509144
:100230007F00609180007091810080917D0090919D
:100240007C009F5F90937C009F3108F48F5F9CE758
:10025000980F9D3730F09FEF980F4F5F5F4F6F4FB4
:100260007F4F90937D0040937E0050937F0060937A
:100270008000709381009F918F917F916F915F912A
:100280004F910F900FBE0F901F90189587FF09C0D8
:100290008F7731F1813031F1823031F1833031F1BA
:1002A0008FEF90E0FC01EA5CFF4F2491805D9F4F4F
:1002B000FC018491882399F090E0880F991FFC013C
:1002C000E65DFF4FA591B491FC01EC5DFF4F859178
:1002D00094918FB7F894EC91E22BEC938FBF089533
:1002E00085E0DFCF82E0DDCF84E0DBCF83E0D9CFD4
:1002F00083E08ABD83BF789489B7826089BF80E438
:100300008CBD8FEF8DBD87EC80BF87E886B980916B
:10031000D8009091D900181619062CF441E06CE031
:1003200090E080E0F6DE8091D8009091D900181618
:1003300019062CF44FE06AE090E080E0EADE80915C
:10034000D8009091D900181619061CF490E080E0AE
:1003500042DF60E770E0E0E6F0E0C1E0D0E021914C
:10036000319190E080E0AE01082E02C0440F551F8D
:100370000A94E2F74095509524233523019688305E
:10038000910589F7DF0112972D933C936E177F0734
:1003900031F72FB7F89480917E0090917F00A09163
:1003A0008000B09181002FBF8093780090937900F6
:1003B000A0937A00B0937B0001E010E08FB7F8942F
:1003C00040917E0050917F0060918000709181008B
:1003D0008FBF8091740090917500A0917600B091CC
:1003E0007700840F951FA61FB71FC0907800D0908C
:1003F0007900E0907A00F0907B008C199D09AE099D
:10040000BF098093740090937500A0937600B09319
:100410007700409378005093790060937A0070934E
:100420007B0085369105A105B10540F2109274005C
:1004300010927500109276001092770080917200F1
:1004400090917300019690937300809372000897C7
:100450008CF0809170009091710010927300109256
:1004600072000196883091050CF04FC09093710096
:1004700080937000A0917200B0917300C0917000E1
:10048000D091710030E020E0B801022E02C0660F6A
:10049000771F0A94E2F77B01E094F094E0E6F0E045
:1004A00050E040E080819181A417B50799F5C2170B
:1004B000D30781F5862B972B918380834F5F5F4F06
:1004C00032964830510571F72F5F3F4F2830310584
:1004D000D9F6C1E0D0E08091D8009091D9001816EB
:1004E000190674F4FE01EE0FFF1FE25AFF4F408120
:1004F000FE01EE57FF4F47876C2F90E080E009DE4A
:100500002196C930D10539F759CF10927100109258
:100510007000B0CF8E219F21CFCFCF93DF93109269
:10052000D3001092D20083E090E09093D5008093A6
:10053000D40081E090E09093D7008093D600909310
:10054000D9008093D80080E0A1DE8091D4009EDEA7
:100550008091D6009BDE61E08091D6008BDD109209
:10056000D3001092D200E2E9F0E0119280E0E23D87
:10057000F807D9F7D0E0C0E08091D8009091D90079
:10058000C817D9074CF540E06FE0CE01C2DD80917D
:10059000D8009091D900C817D90724F447E06BE040
:1005A000CE01B7DD40E069E0CE01B3DD8091D80037
:1005B0009091D900C817D90714F4CE010CDE8091B0
:1005C000D8009091D900C817D90724F440E06CE016
:1005D000CE019FDD2196D0CFDF91CF910895EE0F10
:0E05E000FF1F0590F491E02D0994F894FFCFD1
:00000001FF
