:1000000039C053C052C051C050C04FC0ADC04DC028
:100010004CC04BC04AC049C048C047C046C045C09C
:1000200044C043C042C041C040C0000000000000C6
:1000300000020000000103040000000000003B007B
:1000400038000000320000003A00370000003100A4
:100050000404010104040404040202020202020274
:1000600002010102020104081020400102040810EC
:100070002040800411241FBECFE5D1E0DEBFCDBFFC
:1000800010E0A0E6B0E0EAE0F4E002C005900D92D6
:10009000A038B107D9F721E0A0E8B0E001C01D9277
:1000A000A531B207E1F7AAD0AEC1AACF87FD8FEF85
:1000B00090E0FC01EE59FF4F2491805B9F4FFC01C3
:1000C0008491882399F090E0880F991FFC01EA5BE6
:1000D000FF4FA591B491FC01E45CFF4F8591949191
:1000E0008FB7F894EC91E22BEC938FBF089587FDC6
:1000F0008FEF90E0FC01E65DFF4F3491FC01EE597B
:10010000FF4F2491FC01E05BFF4FE491EE23B9F037
:10011000332329F03130A1F480B78F7780BFF0E02E
:10012000EE0FFF1FE45CFF4FA591B4918FB76111F3
:1001300017C0F894EC9120952E232C938FBF08952F
:10014000323019F480B78F7DE9CF333021F48FB589
:100150008F778FBDE4CF343011F78FB58F7DF9CF16
:10016000F894EC912E2BE9CF1F920F920FB60F92BD
:1001700011242F933F938F939F93AF93BF938091BD
:10018000110190911201A0911301B09114013091CD
:10019000100126E0230F2D3768F129E8230F03967D
:1001A000A11DB11D209310018093110190931201A4
:1001B000A0931301B093140180910C0190910D0153
:1001C000A0910E01B0910F010196A11DB11D809368
:1001D0000C0190930D01A0930E01B0930F01BF91FC
:1001E000AF919F918F913F912F910F900FBE0F90E4
:1001F0001F9018950296A11DB11DD4CF83E080BF3A
:1002000083BF789489B7826089BF00E710E0C0E6B9
:10021000D0E0E88022968E2D49DFF801F0800E5F55
:100220001F4F8F2D43DF61E08E2D61DF61E08F2D49
:100230005EDFF0E0C037DF0761F7E0E8F0E0118251
:1002400010821382128215821482178216821186FE
:100250001086138612861586148617861686709663
:1002600081E0E030F80759F72FB7F8948091110139
:1002700090911201A0911301B09114012FBF8093AE
:10028000080190930901A0930A01B0930B0190E833
:10029000892E90E0992E8FB7F894409111015091DA
:1002A000120160911301709114018FBF80910401BC
:1002B00090910501A0910601B0910701840F951F4F
:1002C000A61FB71F009108011091090120910A0192
:1002D00030910B01801B910BA20BB30B8093040197
:1002E00090930501A0930601B09307014093080184
:1002F0005093090160930A0170930B0185369105B3
:10030000A105B10508F44BC010920401109205013B
:100310001092060110920701809102019091030151
:100320000196909303018093020108978CF08091CD
:1003300000019091010110920301109202010196B7
:10034000883091050CF05AC0909301018093000110
:10035000C0910201D09103010091000110910101AF
:1003600060E870E090E080E0A1E00817190709F06C
:10037000A0E0FB0130E020E04A2FC217D30709F0CC
:1003800040E050E0419351932F5F3F4F28303105BB
:1003900099F70196605F7F4F8830910529F780E8D3
:1003A000E82E80E0F82EC0E7D0E07880229660E06A
:1003B000872D9DDE00E610E06701F601A080B18088
:1003C000F80160800E5F1F4F6A2D862D90DEAA9483
:1003D000AB2819F460E0862D8ADE80E1C80ED11CBE
:1003E000E0E000371E0749F761E0872D80DEF2E08C
:1003F000EF0EF11C8C169D06C1F64DCF1092010137
:0A04000010920001A5CFF894FFCF81
:10040A0000000100020003000400050006000700C6
:10041A00080009000A000B000C000D000E000F0076
:00000001FF
