:100000000C9462000C948A000C948A000C948A0070
:100010000C948A000C948A000C948A000C948A0038
:100020000C948A000C948A000C948A000C948A0028
:100030000C948A000C948A000C948A000C948A0018
:100040000C94B20A0C948A000C948A000C948A00D6
:100050000C948A000C948A000C948A000C948A00F8
:100060000C948A000C948A000000000024002700F1
:100070002A0000000000250028002B0000000000DE
:1000800023002600290004040404040404040202DA
:100090000202020203030303030301020408102007
:1000A0004080010204081020010204081020000012
:1000B0000008000201000003040700000000000027
:1000C00000001D0C11241FBECFEFD8E0DEBFCDBF56
:1000D00017E0A0E0B1E0E8E9FAE102C005900D9276
:1000E000A23BB107D9F728E0A2EBB7E001C01D920F
:1000F000A035B207E1F710E0C2E6D0E004C02197D6
:10010000FE010E94440DC136D107C9F70E94FC0AC6
:100110000C944A0D0C940000833081F028F4813057
:1001200099F08230A9F008958730A9F08830C9F09D
:100130008430B1F4809180008F7D03C08091800075
:100140008F7780938000089584B58F7784BD08955C
:1001500084B58F7DFBCF8091B0008F778093B00006
:1001600008958091B0008F7DF9CFCF93DF93EEEBB0
:10017000F0E08491EAEAF0E0D491E6E9F0E0C4919D
:10018000CC23A1F081110E948C00EC2FF0E0EE0F47
:10019000FF1FE458FF4FA591B491EC91ED2381E04E
:1001A00090E009F480E0DF91CF91089580E090E045
:1001B000FACF1F93CF93DF93282F30E0F901E25558
:1001C000FF4F8491F901E656FF4FD491F901EA57A8
:1001D000FF4FC491CC23A9F0162F81110E948C00EF
:1001E000EC2FF0E0EE0FFF1FEE58FF4FA591B491FA
:1001F0008FB7F894EC91111108C0D095DE23DC93F1
:100200008FBFDF91CF911F910895DE2BF8CFCF9351
:10021000DF9390E0FC01E656FF4F24918A579F4FF1
:10022000FC0184918823D1F090E0880F991FFC0194
:10023000E859FF4FA591B491FC01EE58FF4FC591CD
:10024000D491623071F49FB7F8943C91822F8095DD
:1002500083238C93E8812E2B28839FBFDF91CF913E
:1002600008958FB7F894EC912E2B2C938FBFF6CF77
:100270009F92AF92BF92CF92DF92EF92FF920F9335
:100280001F93CF93DF93CCE8D7E004967C01D8800E
:10029000229661E08D2D0E94D9000CE717E05701EE
:1002A000F50191905F01F801C0800E5F1F4F692D2D
:1002B0008C2D0E94D900911004C061E08C2D0E9409
:1002C000D900F7E00C381F0759F760E08D2D0E9428
:1002D000D90088E0E80EF11CE7E0CC39DE07B9F67A
:1002E000DF91CF911F910F91FF90EF90DF90CF9012
:1002F000BF90AF909F900895CF93DF9350E040E080
:10030000DC01A40FB51FF0E0E0E0EB01288130E054
:100310000E2E02C0359527950A94E2F72095309568
:100320002170332714962C93149731961896E83041
:10033000F10559F74F5F5F4F6F5F7F4F48305105B1
:10034000F9F6DF91CF910895FC01738362830895DC
:100350002F923F924F925F926F927F928F929F92D5
:10036000AF92BF92CF92DF92EF92FF920F931F93C3
:10037000CF93DF93EC012A013B012FB7F8948091D2
:100380004C0890914D08A0914E08B0914F082FBF96
:10039000C12CD12C76018E010A5B1F4F1E0122E079
:1003A000220E311C2FB7F89480904C0890904D0885
:1003B000A0904E08B0904F082FBFA5019401281BB4
:1003C000390B4A0B5B0BDA01C901C80ED91EEA1EB4
:1003D000FB1E4C145D046E047F04B8F18981811109
:1003E00034C0F80180819181A281B3810196A11D61
:1003F000B11D8130F1E09F07A105B105C8F5F801F5
:1004000080839183A283B383F8014081518162810B
:1004100073818A819B81AC81BD81481759076A0726
:100420007B0718F4C1010E9438010E94B500892B96
:1004300031F48981811103C0F1E0F883F983D5019A
:10044000C4012981222309F4ADCFDF91CF911F91FF
:100450000F91FF90EF90DF90CF90BF90AF909F9063
:100460008F907F906F905F904F903F902F90089566
:10047000F8011082118212821382C6CF2F923F920E
:100480004F925F926F927F928F929F92AF92BF92A4
:10049000CF92DF92EF92FF920F931F93CF93DF9350
:1004A000CDB7DEB72C970FB6F894DEBF0FBECDBF29
:1004B0008C01D12CC12C3C0188E3680E711CDE013B
:1004C00011962D016FE0862E912CA12CB12CD80114
:1004D0001496ED91FC91EC0DFD1DE080F180E1148E
:1004E000F10409F4B8C0F701B097E036F10508F05F
:1004F000A1C053E0EE0FFF1F5A95E1F7CF018C58D2
:100500009B4F9C878B872B853C85F9013796FA8713
:10051000E987D801F90121909F0160E090E080E037
:10052000312CA101082E02C0559547950A94E2F797
:1005300040FF0CC047E050E0481B590BE1E0F0E001
:1005400002C0EE0FFF1F4A95E2F76E2B019688302E
:10055000910539F716968D919C911797862BAC01D2
:1005600070E060E016964D935D936D937C931997C0
:10057000189689859A852817390761F6AB85BC8559
:1005800017962C90312C231409F465C0F80146818C
:10059000578160857185DB01CA01B695A79597954E
:1005A000879586839783A087B18782859385A48565
:1005B000B585B695A7959795879540FDB0688287D4
:1005C0009387A487B58738966E167F0601F7D20108
:1005D00088E01D928A95E9F7C201A801DA011A960E
:1005E0002C91DC012D93CD01485F5F4FE417F50797
:1005F000A9F7F80182819381B20102960E947C01E1
:10060000D8011296ED91FC91139782829382A48275
:10061000B582EA5BFF4F108211821282138244E698
:1006200050E060E070E012968D919C910E94A801CC
:100630003394A9CFF701E051F440E034F10558F4C8
:1006400043E0EE0FFF1F4A95E1F7DF01AC58BD4FC5
:10065000BC87AB8758CFB2E0CB0ED11CEF2809F096
:1006600036CF2C960FB6F894DEBF0FBECDBFDF910C
:10067000CF911F910F91FF90EF90DF90CF90BF909F
:10068000AF909F908F907F906F905F904F903F9032
:100690002F9008958F929F92AF92BF92CF92DF9248
:1006A000EF92FF92CF93DF93EC018A819B8160E30D
:1006B00072E002960E947C01EA81FB81C12CD12C60
:1006C0007601C394C282D382E482F582EA5BFF4F53
:1006D000108211821282138244EF51E060E070E0D8
:1006E0008A819B810E94A8018A819B8160E771E0D9
:1006F00002960E947C01EA81FB819FE0892E912C69
:10070000A12CB12C82829382A482B582EA5BFF4F36
:10071000108211821282138248E250E060E070E0A1
:100720008A819B810E94A8018A819B8160E372E09B
:1007300002960E947C01EA81FB81C282D382E4821C
:10074000F582EA5BFF4F108211821282138248E227
:1007500050E060E070E08A819B810E94A8018A815C
:100760009B8160E771E002960E947C01EA81FB8137
:1007700082829382A482B582EA5BFF4F108211824B
:100780001282138248E250E060E070E08A819B812F
:100790000E94A8018A819B8160E372E002960E9418
:1007A0007C01EA81FB81C282D382E482F582EA5B2A
:1007B000FF4F108211821282138248E250E060E003
:1007C00070E08A819B81DF91CF91FF90EF90DF9065
:1007D000CF90BF90AF909F908F900C94A801CF9234
:1007E000DF92EF92FF92CF93DF93EC018A819B819E
:1007F00060E871E002960E947C01EA81FB813FE0A3
:10080000C32ED12CE12CF12CC282D382E482F5825A
:10081000EA5BFF4F108211821282138248E250E09D
:1008200060E070E08A819B810E94A8018A819B819F
:1008300068E771E002960E947C01EA81FB81C28236
:10084000D382E482F582EA5BFF4F1082118212822A
:10085000138248E250E060E070E08A819B810E9450
:10086000A8018A819B8160E871E002960E947C0168
:10087000EA81FB81C282D382E482F582EA5BFF4F88
:10088000108211821282138248E250E060E070E030
:100890008A819B810E94A8018A819B8168E771E01F
:1008A00002960E947C01EA81FB81C282D382E482AB
:1008B000F582EA5BFF4F108211821282138248E2B6
:1008C00050E060E070E08A819B810E94A8018A81EB
:1008D0009B8160E871E002960E947C01EA81FB81C5
:1008E000C282D382E482F582EA5BFF4F10821182DA
:1008F0001282138248E250E060E070E08A819B81BE
:100900000E94A8018A819B8168E771E002960E949B
:100910007C01EA81FB81C282D382E482F582EA5BB8
:10092000FF4F108211821282138248E250E060E091
:1009300070E08A819B810E94A8018A819B8160E886
:1009400071E002960E947C01EA81FB81C282D3821F
:10095000E482F582EA5BFF4F1082118212821382D9
:1009600048E250E060E070E08A819B810E94A8012B
:100970008A819B8168E771E002960E947C01EA818E
:10098000FB81C282D382E482F582EA5BFF4F108250
:1009900011821282138248E250E060E070E08A81A6
:1009A0009B810E94A8018A819B8160E871E0029688
:1009B0000E947C01EA81FB81C282D382E482F582BB
:1009C000EA5BFF4F108211821282138248E250E0EC
:1009D00060E070E08A819B810E94A8018A819B81EE
:1009E00068E771E002960E947C01EA81FB81C28285
:1009F000D382E482F582EA5BFF4F10821182128279
:100A0000138248E250E060E070E08A819B810E949E
:100A1000A801C12CD12C76018A819B8168E871E004
:100A200002960E947C01EA81FB81C282D382E48229
:100A3000F582EA5BFF4F108211821282138248E234
:100A400050E060E070E08A819B810E94A8018FEFF6
:100A5000C81AD80AE80AF80A80E1C816D104E104E5
:100A6000F104D1F644EF51E060E070E08A819B81AF
:100A70000E94A8012FE0C22ED12CE12CF12C8A81FA
:100A80009B8168E871E002960E947C01EA81FB810B
:100A9000C282D382E482F582EA5BFF4F1082118228
:100AA0001282138248E250E060E070E08A819B810C
:100AB0000E94A80181E0C81AD108E108F1088FEF6F
:100AC000C816D806E806F806D1F68A819B816CE63E
:100AD00072E002960E947C01EA81FB8112821382FD
:100AE00014821582EA5BFF4F1082118212821382F8
:100AF00048E250E060E070E08A819B810E94A8019A
:100B00008A819B8160E272E002960E947C01EA8108
:100B1000FB81C12CD12C7601C394C282D382E482A2
:100B2000F582EA5BFF4F10821182128213824CE23F
:100B300051E060E070E08A819B810E94A8018A8177
:100B40009B8168E172E002960E947C01EA81FB8150
:100B5000C282D382E482F582EA5BFF4F1082118267
:100B60001282138248E250E060E070E08A819B814B
:100B70000E94A8018A819B8160E172E002960E9436
:100B80007C01EA81FB81C282D382E482F582EA5B46
:100B9000FF4F108211821282138248E250E060E01F
:100BA00070E08A819B810E94A8018A819B8168E014
:100BB00072E002960E947C01EA81FB81C282D382AC
:100BC000E482F582EA5BFF4F108211821282138267
:100BD00048E250E060E070E08A819B810E94A801B9
:100BE0008A819B8160E072E002960E947C01EA812A
:100BF000FB81C282D382E482F582EA5BFF4F1082DE
:100C000011821282138248E250E060E070E08A8133
:100C10009B810E94A8018A819B8168EF71E0029606
:100C20000E947C01EA81FB81C282D382E482F58248
:100C3000EA5BFF4F108211821282138248E250E079
:100C400060E070E08A819B810E94A8018A819B817B
:100C500060EF71E002960E947C01EA81FB81C28212
:100C6000D382E482F582EA5BFF4F10821182128206
:100C7000138248E250E060E070E08A819B810E942C
:100C8000A8018A819B8168EE71E002960E947C0136
:100C9000EA81FB81C282D382E482F582EA5BFF4F64
:100CA000108211821282138248E250E060E070E00C
:100CB0008A819B810E94A8018A819B8160EE71E0FC
:100CC00002960E947C01EA81FB81C282D382E48287
:100CD000F582EA5BFF4F108211821282138248E292
:100CE00050E060E070E08A819B810E94A8018A81C7
:100CF0009B8168ED71E002960E947C01EA81FB8194
:100D0000C282D382E482F582EA5BFF4F10821182B5
:100D10001282138248E250E060E070E08A819B8199
:100D20000E94A8018A819B8160ED71E002960E9479
:100D30007C01EA81FB81C282D382E482F582EA5B94
:100D4000FF4F108211821282138248E250E060E06D
:100D500070E08A819B810E94A8018A819B8168EC56
:100D600071E002960E947C01EA81FB81C282D382FB
:100D7000E482F582EA5BFF4F1082118212821382B5
:100D800048E250E060E070E08A819B810E94A80107
:100D90008A819B8160EC71E002960E947C01EA816D
:100DA000FB81C282D382E482F582EA5BFF4F10822C
:100DB00011821282138248E250E060E070E08A8182
:100DC0009B810E94A8018A819B8168EB71E0029659
:100DD0000E947C01EA81FB81C282D382E482F58297
:100DE000EA5BFF4F108211821282138248E250E0C8
:100DF00060E070E08A819B810E94A8018A819B81CA
:100E000060EB71E002960E947C01EA81FB81C28264
:100E1000D382E482F582EA5BFF4F10821182128254
:100E2000138248E250E060E070E08A819B810E947A
:100E3000A8018A819B8168EA71E002960E947C0188
:100E4000EA81FB81C282D382E482F582EA5BFF4FB2
:100E5000108211821282138248E250E060E070E05A
:100E60008A819B810E94A8018A819B8160EA71E04E
:100E700002960E947C01EA81FB81C282D382E482D5
:100E8000F582EA5BFF4F108211821282138248E2E0
:100E900050E060E070E08A819B810E94A8018A8115
:100EA0009B8168E971E002960E947C01EA81FB81E6
:100EB000C282D382E482F582EA5BFF4F1082118204
:100EC0001282138248E250E060E070E08A819B81E8
:100ED0000E94A8018A819B8160E971E002960E94CC
:100EE0007C01EA81FB81C282D382E482F582EA5BE3
:100EF000FF4F108211821282138248E250E060E0BC
:100F000070E08A819B810E94A801CE010E944A0361
:100F1000CE010E944A03CE010E944A0348E250E0FB
:100F200060E070E08A819B810E94A8018A819B8198
:100F300060E372E002960E947C01EA81FB81C2823A
:100F4000D382E482F582EA5BFF4F10821182128223
:100F5000138248E250E060E070E08A819B810E9449
:100F6000A8018FEFC81AD80AE80AF80A80E1C81663
:100F7000D104E104F104D1F644EF51E060E070E007
:100F80008A819B810E94A8018FE0C82ED12CE12C80
:100F9000F12C8A819B8160E372E002960E947C01C1
:100FA000EA81FB81C282D382E482F582EA5BFF4F51
:100FB000108211821282138248E250E060E070E0F9
:100FC0008A819B810E94A80181E0C81AD108E108AA
:100FD000F1088FEFC816D806E806F806D1F68A8120
:100FE0009B816CE672E002960E947C01EA81FB81A3
:100FF0001282138214821582EA5BFF4F10821182E3
:101000001282138248E250E060E070E08A819B81A6
:101010000E94A801C12CD12C76018A819B8168E2B3
:1010200072E002960E947C01EA81FB81C282D38237
:10103000E482F582EA5BFF4F1082118212821382F2
:1010400048E250E060E070E08A819B810E94A80144
:101050008FEFC81AD80AE80AF80A80E1C816D10446
:10106000E104F104D1F644EF51E060E070E08A81E0
:101070009B81DF91CF91FF90EF90DF90CF900C9408
:10108000A801CF92DF92EF92FF920F931F93CF931D
:10109000DF938C01CCE5D2E08FE0C82ED12CE12C7F
:1010A000F12C69917991D80112968D919C910296BB
:1010B0000E947C01D8011296ED91FC911397C28297
:1010C000D382E482F582EA5BFF4F108211821282A2
:1010D000138246E950E060E070E012968D919C9199
:1010E0000E94A801B2E0CC36DB07D9F6DF91CF91A0
:1010F0001F910F91FF90EF90DF90CF900895CF92C6
:10110000DF92EF92FF92CF93DF93EC010E94890C64
:1011100026E030E040E050E00E94E10C6F5F61307B
:1011200009F063C0C12CD12C7601C3948A819B81C4
:1011300068E671E002960E947C01EA81FB81C2822E
:10114000D382E482F582EA5BFF4F10821182128221
:1011500013824CE350E060E070E08A819B810E9442
:10116000A8018FEFC81AD80AE80AF80A86E0C8165C
:10117000D104E104F104D1F6A5E0CA2ED12CE12C72
:10118000F12C8A819B8168E671E002960E947C01C5
:10119000EA81FB81C282D382E482F582EA5BFF4F5F
:1011A00010821182128213824CE350E060E070E002
:1011B0008A819B810E94A80181E0C81AD108E108B8
:1011C000F1088FEFC816D806E806F806D1F644EF06
:1011D00051E060E070E08A819B81DF91CF91FF90C8
:1011E000EF90DF90CF900C94A801623009F056C0C8
:1011F000C12CD12C7601C3948A819B8160E671E079
:1012000002960E947C01EA81FB81C282D382E48241
:10121000F582EA5BFF4F10821182128213824CE347
:1012200050E060E070E08A819B810E94A8018FEF0E
:10123000C81AD80AE80AF80A86E0C816D104E104F8
:10124000F104D1F6E5E0CE2ED12CE12CF12C8A81EF
:101250009B8160E671E002960E947C01EA81FB813D
:10126000C282D382E482F582EA5BFF4F1082118250
:10127000128213824CE350E060E070E08A819B812F
:101280000E94A80181E0C81AD108E108F1088FEF97
:10129000C816D806E806F806D1F699CF633009F0EB
:1012A00056C0C12CD12C7601C3948A819B8168E5FC
:1012B00071E002960E947C01EA81FB81C282D382A6
:1012C000E482F582EA5BFF4F108211821282138260
:1012D0004CE350E060E070E08A819B810E94A801AD
:1012E0008FEFC81AD80AE80AF80A86E0C816D104AF
:1012F000E104F104D1F665E0C62ED12CE12CF12CED
:101300008A819B8168E571E002960E947C01EA81F6
:10131000FB81C282D382E482F582EA5BFF4F1082B6
:101320001182128213824CE350E060E070E08A8107
:101330009B810E94A80181E0C81AD108E108F10848
:101340008FEFC816D806E806F806D1F640CF64300D
:1013500009F056C0C12CD12C7601C3948A819B819F
:1013600060E571E002960E947C01EA81FB81C28205
:10137000D382E482F582EA5BFF4F108211821282EF
:1013800013824CE350E060E070E08A819B810E9410
:10139000A8018FEFC81AD80AE80AF80A86E0C8162A
:1013A000D104E104F104D1F645E0C42ED12CE12CA6
:1013B000F12C8A819B8160E571E002960E947C019C
:1013C000EA81FB81C282D382E482F582EA5BFF4F2D
:1013D00010821182128213824CE350E060E070E0D0
:1013E0008A819B810E94A80181E0C81AD108E10886
:1013F000F1088FEFC816D806E806F806D1F6E7CE52
:10140000653009F056C0C12CD12C7601C3948A8175
:101410009B8168E471E002960E947C01EA81FB8175
:10142000C282D382E482F582EA5BFF4F108211828E
:10143000128213824CE350E060E070E08A819B816D
:101440000E94A8018FEFC81AD80AE80AF80A86E0B5
:10145000C816D104E104F104D1F625E0C22ED12C46
:10146000E12CF12C8A819B8168E471E002960E9454
:101470007C01EA81FB81C282D382E482F582EA5B4D
:10148000FF4F10821182128213824CE350E060E021
:1014900070E08A819B810E94A80181E0C81AD1086E
:1014A000E108F1088FEFC816D806E806F806D1F66D
:1014B0008ECE663009F08BCEC12CD12C7601C39430
:1014C0008A819B8160E471E002960E947C01EA813E
:1014D000FB81C282D382E482F582EA5BFF4F1082F5
:1014E0001182128213824CE350E060E070E08A8146
:1014F0009B810E94A8018FEFC81AD80AE80AF80A4F
:1015000086E0C816D104E104F104D1F685E0C82EC6
:10151000D12CE12CF12C8A819B8160E471E0029650
:101520000E947C01EA81FB81C282D382E482F5823F
:10153000EA5BFF4F10821182128213824CE350E06B
:1015400060E070E08A819B810E94A80181E0C81A56
:10155000D108E108F1088FEFC816D806E806F806AA
:10156000D1F635CE1F920F920FB60F9211242F9302
:101570003F938F939F93AF93BF9380914C0890912B
:101580004D08A0914E08B0914F0830914B0823E0D0
:10159000230F2D3758F50196A11DB11D20934B083F
:1015A00080934C0890934D08A0934E08B0934F0839
:1015B0008091470890914808A0914908B0914A0845
:1015C0000196A11DB11D8093470890934808A093F0
:1015D0004908B0934A08BF91AF919F918F913F9175
:1015E0002F910F900FBE0F901F90189526E8230F94
:1015F0000296A11DB11DD2CF789484B5826084BDBE
:1016000084B5816084BD85B5826085BD85B5816006
:1016100085BD80916E00816080936E001092810084
:10162000809181008260809381008091810081603F
:101630008093810080918000816080938000809100
:10164000B10084608093B1008091B000816080938C
:10165000B00080917A00846080937A0080917A0053
:10166000826080937A0080917A00816080937A0012
:1016700080917A00806880937A001092C10068E7B8
:1016800076E584E392E10E94D80C62E080E10E945A
:101690000701CCE8D7E00CE717E08CE9C82E87E01B
:1016A000D82EE880229661E08E2D0E940701F80175
:1016B000F0800E5F1F4F61E08F2D0E94070160E0F8
:1016C0008E2D0E94D90061E08F2D0E94D900CC168A
:1016D000DD0639F7EDEFF7E081E0868387838087C9
:1016E00081878287838784878587389628E0ED33D2
:1016F000F20799F78DEF97E09093B5078093B407C1
:101700009093B9078093B8079093BD078093BC0767
:101710009093C1078093C0078CE997E09093C3072B
:101720008093C2071092FC07C0E0D0E011E08091E6
:10173000FD07882341F08091FC0790E001968370BB
:1017400099278093FC078091FE0781113FC080910B
:10175000430890914408A0914508B091460801962D
:10176000A11DB11D8130E1E09E07A105B10508F082
:1017700047C08093430890934408A0934508B093D2
:101780004608409143085091440860914508709183
:1017900046088091FF0790910008A0910108B09140
:1017A0000208481759076A077B0720F48FEF97E074
:1017B0000E9438010E94B500892B41F48091FE07F8
:1017C000811104C01093FD071093FE070E94B5001D
:1017D000019729F48091FE0781111092FE07109263
:1017E000FD078091FC078130C9F098F08230D9F074
:1017F0008330F1F0209709F49ACF0E94000097CF30
:10180000109243081092440810924508109246081E
:10181000B8CF8EEB97E00E943E02ECCF8AEB97E0C8
:101820000E944108E7CF86EB97E00E947F08E2CF55
:1018300082EB97E00E94EF03DDCF88E592E0909382
:10184000B3078093B20780E592E09093B707809347
:10185000B60788E492E09093BB078093BA0780E4D0
:1018600092E09093BF078093BE07E4ECF7E088E333
:10187000DF011D928A95E9F708958F929F92AF92AA
:10188000BF92CF92DF92EF92FF92CF93DF93EC0162
:10189000688179818A819B81611571058105910536
:1018A00021F464E279ED8BE597E02DE133EF41E03F
:1018B00050E00E94E10C49015A019B01AC01A7EAEA
:1018C000B1E40E94000D6B017C01ACEEB4EFA50108
:1018D00094010E940E0DC60ED71EE81EF91EF7FEDB
:1018E00006C081E0C81AD108E10880E8F80AC88279
:1018F000D982EA82FB82C701B6019F77DF91CF913F
:10190000FF90EF90DF90CF90BF90AF909F908F901F
:1019100008958F929F92AF92BF92CF92DF92EF92F3
:10192000FF92609138027091390280913A02909151
:101930003B02611571058105910521F464E279EDA1
:101940008BE597E02DE133EF41E050E00E94E10CA0
:1019500049015A019B01AC01A7EAB1E40E94000DC4
:101960006B017C01ACEEB4EFA50194010E940E0D59
:10197000C60ED71EE81EF91EF7FE06C081E0C81A83
:10198000D108E10880E8F80AC0923802D092390202
:10199000E0923A02F0923B02C701B6019F77FF90B6
:1019A000EF90DF90CF90BF90AF909F908F90089571
:1019B000609338027093390280933A0290933B020D
:1019C0000895052E97FB1EF400940E94F80C57FD15
:1019D00007D00E94130D07FC03D04EF40C94F80CB2
:1019E00050954095309521953F4F4F4F5F4F08954B
:1019F00090958095709561957F4F8F4F9F4F08957B
:101A00000E94350DA59F900DB49F900DA49F800D51
:101A1000911D11240895B7FF0C94000D0E94000D34
:101A2000821B930B0895A1E21A2EAA1BBB1BFD017A
:101A30000DC0AA1FBB1FEE1FFF1FA217B307E407AD
:101A4000F50720F0A21BB30BE40BF50B661F771F05
:101A5000881F991F1A9469F76095709580959095E5
:101A60009B01AC01BD01CF010895A29FB001B39FBE
:101A7000C001A39F700D811D1124911DB29F700D97
:101A8000811D1124911D0895EE0FFF1F0590F49103
:081A9000E02D0994F894FFCF4A
:101A98001C3E6B497F637F551C3E6B497F637F55B6
:101AA8001C3E6B497F637F551C3E6D497F637F55A4
:101AB8001C3E496D7F637F551C3E495B7F637F55A4
:101AC8001C3E5B497F637F551C3E6B497F637F5596
:101AD8006666006666006666C3C300181800C3C35E
:101AE8000066660000666600C0C0001818000303A0
:101AF80000606000000606000000001818000000E2
:101B08006CFEFEFE7C38100055AA55AA55AA55AAA7
:101B1800AA55AA55AA55AA557E1818181818187E35
:101B280000367F7F7F3E1C0800365F7F7F3E1C08A3
:101B380000364F7F7F3E1C0800364B7F7F3E1C08D7
:101B48000036497F7F3E1C080036497D7F3E1C08D1
:101B5800003649797F3E1C08003649717F3E1C08D3
:101B6800003649617F3E1C08003649417F3E1C080B
:101B7800003649415F3E1C08003649414F3E1C086B
:101B880000364941473E1C0800364941433E1C087F
:101B980000364941413E1C0800364941413A1C087B
:101BA8000036494141321C080036494141221C088F
:101BB8000036494141221408C3C3C3C3C3C3FF7ECF
:101BC80000367F7F7F3E1C080100000000000000F7
:101BD800A4013E0200000000A4014108000000002A
:101BE800A4017F0800000000A401EF0338013001C0
:101BF800280120011801100108010001000000005F
:101C080000000000708888F888888806F88080F0CE
:101C18008888F006F08888F08888F006F880808048
:101C280080808006705050505050F806F88080F040
:101C38008080F806A8A8A870A8A8A8067088083008
:101C4800088870068898A8C88888880650208898C8
:101C5800A8C888068890A0C0A090880678484848F8
:101C68004848880688D8A88888888806888888F890
:101C7800888888067088888888887006F8888888A0
:101C880088888807F08888F080808006708880803F
:101C980080887006F8202020202000068888505070
:101CA800202040062070A8A8A87020068850202070
:101CB80020508806909090909090F80688888878B0
:101CC80008080806A8A8A8A8A8A8F806D0D0D0D0C0
:101CD800D0D0F806C040407048487006888888C848
:101CE800A8A8C806808080F08888F0067088083820
:101CF8000888700690A8A8E8A8A890067888887828
:101D08002848880600003848889868067880F0884F
:101D1800888870060000F088F088F0060000F880D7
:101D28008080800670505050F888880600007088BF
:101D3800F88070060000A8A870A8A8060000F0089F
:101D48003008F00600008898A8C8880650208898AF
:101D5800A8C8880600008890E090880600007848A7
:101D680048488806000088D8A8888806000088881F
:101D7800F888880600007088888870060000F8884F
:101D8800888888060000E09090E0800500000078D0
:101D9800808078060000F82020202006888850508F
:101DA8002020C006202070A8A8A87006000088502F
:101DB8002050880690909090F808080600008888BF
:101DC800780808060000A8A8A8A8F806D0D0D0D09F
:101DD800F80808060000C0407048700600008888AF
:101DE800C8A8C80600008080F088F0060000E01847
:101DF8007808E006000090A8E8A890060000788817
:101E08007828C80600000000000000034040404059
:101E180040004002A0A0A000000000045050F8506C
:101E2800F85050062078A07028F02006C0C810206E
:101E3800409818066090A040A8906806C0408000AE
:101E48000000000320408080804020048040202043
:101E5800204080040020A870A8200006002020F858
:101E68002020000600000000C04080030000F800A9
:101E7800000000060000000000C0C0030008102099
:101E880040800006708898A8C888700640C0404006
:101E98004040E004708808102040F806F810201030
:101EA8000888700610305090F8101006F880F00876
:101EB80008887006304080F088887006F888081016
:101EC8002020200670888870888870067088887836
:101ED8000810600600C0C000C0C0000300C0C000F9
:101EE800C040800310204080402010050000F8000A
:101EF800F8000006804020102040800570880810F7
:101F08002000200670880868A8A87006708888884D
:101F1800F8888806F08888F08888F00670888080BD
:101F280080887006E09088888890E006F88080F0C5
:101F38008080F806F88080F080808006708880B8FD
:101F480088887806888888F888888806E04040402D
:101F58004040E00438101010109060068890A0C02F
:101F6800A0908806808080808080F80688D8A8A8FD
:101F7800888888068888C8A8988888067088888885
:101F880088887006F08888F0808080067088888845
:101F9800A8906806F08888F0A090880678808070FD
:101FA8000808F006F8202020202020068888888845
:101FB800888870068888888888502006888888A835
:101FC800A8A8500688885020508888068888885095
:101FD80020202006F80810204080F806E080808045
:101FE8008080E0040080402010080006E0202020C7
:101FF8002020E004205088000000000600000000B7
:102008000000F8068040200000000004000070086E
:10201800788878068080B0C88888F00600007088C4
:102028008088700608086898888878060000708894
:10203800F8807006304840E04040400600788888C4
:10204800780870068080B0C8888888064000C0403C
:102058004040E0041000301010906005808090A08F
:10206800C0A09005C04040404040E0040000D0A817
:10207800A88888060000B0C888888806000070888C
:10208800888870060000F088F08080060000689854
:10209800780808060000B0C88080800600007080BC
:1020A8007008F0064040E04040483006000088884C
:1020B800889868060000888888502006000088A84C
:1020C800A8A850060000885020508806000088887C
:1020D800780870060000F8102040F806204040807C
:1020E80040402004808080808080800280404020A2
:1020F80040408004000000689000000660909060F6
:1021080000000005006066008166180508000900E7
:102118000A000B000C000D000E000F00000001006B
:102128000200030004000500060007001F04400425
:102138003804320435044204210021002100200023
:02214800000095
:00000001FF
