:100000000C945C000C9479000C9479000C947900A9
:100010000C9479000C9479000C9479000C9479007C
:100020000C9479000C9479000C9479000C9479006C
:100030000C9479000C9479000C9479000C9479005C
:100040000C94E6000C9479000C9479000C947900DF
:100050000C9479000C9479000C9479000C9479003C
:100060000C9479000C947900000000080002010053
:100070000003040700000000000000000000000072
:10008000250028002B0000000000240027002A0083
:10009000040404040404040402020202020203032E
:1000A0000303030301020408102040800102040836
:1000B000102001020408102011241FBECFEFD8E049
:1000C000DEBFCDBF11E0A0E0B1E0E6E1F5E002C0A7
:1000D00005900D92A032B107D9F721E0A0E2B1E07E
:1000E00001C01D92A53BB207E1F70E9430010C94BC
:1000F00089020C94000090E0FC01EC55FF4F249124
:1001000080579F4FFC018491882399F090E0880FDD
:10011000991FFC01EA57FF4FA591B491FC01E458E7
:10012000FF4F859194918FB7F894EC91E22BEC936B
:100130008FBF089590E0FC01E859FF4F2491FC0126
:10014000EC55FF4F3491FC01E057FF4FE491EE2353
:10015000C9F0222339F0233001F1A8F4213019F13C
:10016000223029F1F0E0EE0FFF1FE458FF4FA59178
:10017000B4918FB7F894EC91611126C030953E236D
:100180003C938FBF08952730A9F02830C9F0243060
:1001900049F7809180008F7D03C0809180008F7728
:1001A00080938000DFCF84B58F7784BDDBCF84B5AB
:1001B0008F7DFBCF8091B0008F778093B000D2CF3E
:1001C0008091B0008F7DF9CF3E2BDACF1F920F9236
:1001D0000FB60F9211242F933F938F939F93AF935A
:1001E000BF938091B1019091B201A091B301B09100
:1001F000B4013091B00123E0230F2D3758F501965B
:10020000A11DB11D2093B0018093B1019093B20163
:10021000A093B301B093B4018091AC019091AD0172
:10022000A091AE01B091AF010196A11DB11D8093C7
:10023000AC019093AD01A093AE01B093AF01BF911B
:10024000AF919F918F913F912F910F900FBE0F9083
:100250001F90189526E8230F0296A11DB11DD2CF3D
:10026000789484B5826084BD84B5816084BD85B591
:10027000826085BD85B5816085BD80916E0081609D
:1002800080936E0010928100809181008260809343
:100290008100809181008160809381008091800045
:1002A0008160809380008091B10084608093B10070
:1002B0008091B00081608093B00080917A0084606A
:1002C00080937A0080917A00826080937A00809196
:1002D0007A00816080937A0080917A0080688093B0
:1002E0007A001092C10000E011E0C0E1D1E0E880A6
:1002F00022968E2D0E947B00F801F0800E5F1F4F2A
:100300008F2D0E947B0060E08E2D0E949A0061E09C
:100310008F2D0E949A00F1E0C032DF0741F7E0E242
:10032000F1E081E090E091838083938382839583E1
:100330008483978386839187808793878287958735
:10034000848797878687709621E0E03AF20759F70D
:100350002FB7F8948091B1019091B201A091B301AF
:10036000B091B4012FBF8093A8019093A901A093ED
:10037000AA01B093AB0160E0862E60E0962E8FB7A5
:10038000F8944091B1015091B2016091B301709124
:10039000B4018FBF8091A4019091A501A091A60105
:1003A000B091A701840F951FA61FB71F0091A80148
:1003B0001091A9012091AA013091AB01801B910BF2
:1003C000A20BB30B8093A4019093A501A093A60167
:1003D000B093A7014093A8015093A9016093AA018B
:1003E0007093AB0185369105A105B10508F44FC0A6
:1003F0001092A4011092A5011092A6011092A701DB
:100400008091A2019091A30101969093A301809302
:10041000A20108978CF08091A0019091A101109207
:10042000A3011092A2010196883091050CF06CC0D6
:100430009093A1018093A001C091A201D091A3014A
:100440000091A0011091A10160E271E030E020E094
:10045000A1E00217130709F4A0E090E080E04A2F22
:10046000C817D90709F041E0FC01EE0FFF1FE60FA6
:10047000F71F50E05183408301968830910579F74A
:100480002F5F3F4F605F7F4F2830310509F790E2C3
:10049000E92E91E0F92EC0E1D1E07880229661E06A
:1004A000872D0E949A0080E0C82E81E0D82E10E0AF
:1004B00000E0F701E00FF11FA080B180F60160803D
:1004C000F2E0CF0ED11C6A2D862D0E949A00AB2837
:1004D00021F461E0862D0E949A000E5F1F4F0031CB
:1004E000110539F760E0872D0E949A0020E1E20EA5
:1004F000F11C81E0C032D80781F68114910409F41F
:100500003ECF0E9400003BCF1092A1011092A001AB
:0605100093CFF894FFCF29
:10051600080009000A000B000C000D000E000F0079
:1005260000000100020003000400050006000700A9
:00000001FF
